:020000040800F2
:100000009004002001010008DD0A0008E70900084B
:10001000190A0008770600083319000800000000DC
:10002000000000000000000000000000D1110008E6
:10003000E50700080000000015100008B9130008CB
:100040001B0100081B0100081B0100081B01000820
:100050001B0100081B0100081B0100081B01000810
:100060001B0100081B0100081B0100081B01000800
:100070001B0100081B0100081B0100081B010008F0
:100080001B0100081B0100081B0100081B010008E0
:100090001B0100081B0100081B0100081B010008D0
:1000A0001B0100081B0100081B0100081B010008C0
:1000B0001B0100081B0100081B0100081B010008B0
:1000C0001B0100081B0100081B0100081B010008A0
:1000D0001B010008D91600081B0100081B010008BD
:1000E0001B0100081B0100081B010008DFF80CD0F1
:1000F00000F0A0FA00480047A5190008900400206D
:100100000648804706480047FEE7FEE7FEE7FEE7B1
:10011000FEE7FEE7FEE7FEE7FEE7FEE7BD130008A9
:10012000ED000008F0B480EA0102D40F4200B2EB07
:10013000410F02D20246084611464A0042D0C30D82
:10014000DDB2C1F3C752AD1A202D35DAC1F3160165
:1001500041F4000204B15242C5F1200602FA06F150
:100160002A411044B3EBD05F23D0C4B1012DA0EBE2
:10017000C35009DCF0BC4FF0004202EAC352DBB2CC
:1001800000F5000000F0CAB9400000F1807000EBFB
:10019000C350A0F1807040EAD170490009E04908DD
:1001A00041EAC071A0EBC35000F50000400800EB2D
:1001B000C350F0BC00F0A9B96142012202EB410139
:1001C000001BF6E7F0BC704781F00041AAE780F021
:1001D0000040A7E780EA010210B502F000434000AA
:1001E00022D04A001FD0010E01EB1261C0F356006D
:1001F000C2F3560240F4000042F40002A0FB0220C9
:1002000000047F39140400D0401C50EA124001D48D
:100210004000491EC2B20C0604EBD010401C40083E
:10022000802A02D003E0002010BD20F00100002948
:1002300000DA0020184310BD30B480EA010202F059
:10024000004530F0004221F0004013D090B1C30DC2
:10025000D40DC2F31601C0F31600E41A41F40001F4
:1002600040F400027D34914201D3641C00E0490057
:10027000002C02DA30BC002070474FF4000000234D
:10028000914201D3891A034340084FEA4101F7D153
:1002900051B1914202D14FF0004105E002D24FF03E
:1002A000010101E06FF0010103EBC450284430BCB0
:1002B00000F02BB92DE9FE4F81EA030404F000445D
:1002C00021F0004100944FF0000B23F0004350EA6E
:1002D00001045ED052EA03045BD0C3F30A54C1F3B5
:1002E0000A552C44A4F2F3340194A0FB0254C1F348
:1002F000130141F48011C3F3130343F4801301FB92
:10030000024400FB034E840A970A44EA815447EAF8
:100310008357A4FB076802958D0A05FB07854FEA02
:10032000932C04FB0C542705029D4FEA065847EA1C
:100330001637B5EB08056EEB070C870E920E47EAF1
:10034000811742EA8312A7FB0201B6EB0B0164EBB3
:1003500000042B0D43EA0C335E1844EB1C50DA46C4
:100360005146E7FB0201C5F313044FEA0B3343EA9E
:1003700014534FEA0432019C43EA0603A4F10C042F
:100380000294009CCDE900B400F005F903B0BDE88B
:10039000F08F00200146F9E72DE9F04D81EA0304D2
:1003A00004F0004B21F0004514464FF0000A23F002
:1003B000004150EA050220D054EA01021DD0C5F3E5
:1003C0000A570246C5F31303C1F31300C1F30A56DB
:1003D00040F4801543F48013A7EB0608101BD646A3
:1003E00008F2FD3873EB050002D308F1010801E0C3
:1003F00092185B41B8F1000F03DA00200146BDE816
:10040000F08D00204FF48011064684460EE0171B45
:1004100073EB050705D3121B63EB050306434CEA98
:10042000010C49084FEA300092185B4150EA01077D
:10043000EDD152EA030012D082EA040083EA0501FA
:10044000084305D0101BAB4106D20122002306E071
:1004500000224FF0004302E06FF0010253101AEB4C
:1004600006004CEB085110EB0A0041EB0B01BDE814
:10047000F04D00F081B80EB540F2334102910021F9
:10048000CDE900110A460B4600F085F803B000BD27
:1004900020F00040C10DC0F3160040F400007F2999
:1004A00001DA00207047962903DCC1F19601C840AB
:1004B0007047963988407047C1F30A5210B5C1F3AE
:1004C000130140F2FF3341F480119A4201DA002017
:1004D00010BD40F233439A42A2F2334203DC52424F
:1004E00000F003F810BD904010BD202A04DB203A34
:1004F00021FA02F00021704721FA02F3D040C2F144
:10050000200291400843194670470029A8BF704750
:10051000401C490008BF20F00100704710B4B0FA39
:1005200080FC00FA0CF050EA010404BF10BC7047D4
:1005300049B1CCF1200421FA04F411FA0CF118BFEE
:10054000012121430843A3EB0C01CB1D4FEA0061BD
:100550004FEA102042BF002010BC704700EBC35090
:1005600010440029A4BF10BC7047401C490008BFBC
:1005700020F0010010BC704710B5141E73F1000488
:1005800008DA401C41F1000192185B411A4301D185
:1005900020F0010010BD2DE9F04D92469B4611B1AF
:1005A000B1FA81F202E0B0FA80F22032904600F017
:1005B00053F804460F4640EA0A0041EA0B0153464D
:1005C0005A46084313D0114653EA010019D0C8F126
:1005D00040025046FFF789FF05460E4650465946F1
:1005E000424600F039F8084305D0012004E02046D7
:1005F0003946BDE8F08D0020054346EAE0762C43FD
:1006000037430A986305E40AA0EB08000022FD0ABC
:1006100044EA47540A3002D500200146E9E70105C3
:1006200010196941DDE9084500196941BDE8F04D3F
:10063000A2E70000064C074D06E0E06840F0010329
:1006400094E8070098471034AC42F6D3FFF752FD08
:100650000020000820200008202A04DB203A00FAAD
:1006600002F1002070479140C2F1200320FA03F309
:1006700019439040704700BFFEE7000010B500F03E
:10068000A9F8384800F006FE642000F0ACF800F04D
:100690004DFD3549086035A20721032000F0C6FB57
:1006A0000323314807210268042000F09DFB2E48F7
:1006B0000068192855D200F073F8002000F0EAFD18
:1006C0004FF47A7000F08FF800F030FD2849086090
:1006D00028A20D21032000F0A9FB032324480D21AB
:1006E0000268042000F080FB234800F0D3FD4FF4A3
:1006F0007A7000F078F800F019FD2049086020A217
:100700000121032000F092FB1EA20021042000F032
:100710008DFB0323194801210268042000F064FBCB
:1007200013480068192803D314480068192805D213
:1007300000F02CF84FF47A7000F055F80C4800687F
:100740000E490968884206D900F032F84FF4FA7071
:1007500000F049F805E000F034F84FF4FA7000F0CA
:1007600042F810BD0000B4421800002020433A00B7
:100770001C00002020523A000000344320000020DA
:10078000204C3A00202020202020200010B56FF0BF
:100790003B0000F07FF96FF03B0000F057F910BD0F
:1007A00010B5002000F076F9002000F04FF910BDE0
:1007B00010B53C2000F06EF96FF03B0000F046F9F8
:1007C00010BD10B56FF03B0000F064F93C2000F064
:1007D0003DF910BD10B53C2000F05CF93C2000F064
:1007E00035F910BD704700B5034603E04FF47A7049
:1007F00000F005F8181EA3F10103F7D100BD00EBCE
:10080000C001C9004FF0E022516100219161052132
:10081000116100BF4FF0E021096901F48031002926
:10082000F8D004214FF0E022116170472DE9F0412A
:10083000024600250026002000230024002791F80E
:1008400003C00CF00F0591F803C00CF0100CBCF1C4
:10085000000F03D091F802C04CEA050591F800C0E2
:10086000BCF1000F31D0146800202BE04FF0010CD8
:100870000CFA00F3B1F800C00CEA03069E4220D146
:1008800083004FF00F0C0CFA03F7BC4305FA03FC8E
:100890004CEA040491F803C0BCF1280F06D14FF0D4
:1008A000010C0CFA00FCC2F814C00AE091F803C075
:1008B000BCF1480F05D14FF0010C0CFA00FCC2F856
:1008C00010C0401C0828D1D31460B1F800C0BCF19E
:1008D000FF0F34DD546800202EE000F1080C4FF0CB
:1008E000010808FA0CF3B1F800C00CEA03069E42B6
:1008F00021D183004FF00F0C0CFA03F7BC4305FA2B
:1009000003FC4CEA040491F803C0BCF1280F05D1A4
:1009100000F1080C08FA0CF8C2F8148091F803C032
:10092000BCF1480F07D100F1080C4FF0010808FA9C
:100930000CF8C2F81080401C0828CED35460BDE8E3
:10094000F0810000F0B50A460023002400210025B4
:1009500000F00046B6F1004F02D11D4EF16901E0F2
:100960001B4E7168C0F3034583B200F44016B6F520
:10097000401F08D121F07061154E766826F0706630
:10098000134F7E6012E000F48016B6F5801F06D18A
:10099000032606FA05F4A14341F0706106E0460D16
:1009A000360103FA06F6B14341F0706122B1460DFB
:1009B000360103FA06F6314300F00046B6F1004F67
:1009C00002D1034EF16101E0014E7160F0BD000003
:1009D0000000014041617047016170470AB1016147
:1009E00000E04161704700BFFEE7000008B501214B
:1009F000042000F021FB10208DF803000620ADF844
:100A0000000003208DF8020069460248FFF70EFF40
:100A100008BD00000008014000BFFEE708B5012145
:100A2000082000F009FB10208DF803004FF47040FF
:100A3000ADF8000003208DF8020069460248FFF778
:100A4000F5FE00F027FA08BD000C014010B5044681
:100A5000002C0DDB4FF480410D48FFF7BDFF4FF434
:100A600000410B48FFF7B6FFA0B200F0BFFA0DE05F
:100A70004FF480410648FFF7ADFF4FF400410448B2
:100A8000FFF7AAFF614288B200F0B0FA10BD000083
:100A9000000C014010B50446002C0DDB4FF48051D2
:100AA0000D48FFF799FF4FF400510B48FFF792FFF5
:100AB000A0B200F091FA0DE04FF480510648FFF724
:100AC00089FF4FF400510448FFF786FF614288B266
:100AD00000F082FA10BD0000000C014070470000D9
:100AE00070B5002100230F22C47804B3154C24688C
:100AF00004F4E064C4F5E064210AC1F10403CA40CF
:100B0000447804FA03F184781440214309010E4C1F
:100B10000678A155047804F01F050124AC4005783F
:100B20006D11AD0005F1E025C5F8004109E004783C
:100B300004F01F050124AC40044D0678761145F8F9
:100B4000264070BD0CED00E000E400E080E100E034
:100B500002490143024A1160704700000000FA0593
:100B60000CED00E070B500240EE00021204600F0FE
:100B7000F0F8002504E0002000F07CF9681CC5B204
:100B8000802DF8DB601CC4B2082CEEDB70BD0000C9
:100B900008B50121082000F04FFA14208DF8030059
:100BA00003208DF802004FF48070ADF80000694614
:100BB0000A48FFF73BFE4FF40070ADF800006946AD
:100BC0000648FFF733FE012211020448FFF706FF33
:100BD000012251020148FFF701FF08BD000C01404E
:100BE00070B50546002415E08020204100EA05028A
:100BF0004FF400710E48FFF7F1FE012211020C487C
:100C0000FFF7ECFE00224FF480710948FFF7E6FE83
:100C1000601CC4B2082CE7DB012211020448FFF774
:100C2000DDFE00224FF480710148FFF7D7FE70BD52
:100C3000000C014010B5012251020A48FFF7CEFE18
:100C4000012211020748FFF7C9FE00224FF400718C
:100C50000448FFF7C3FE00224FF480710148FFF7FC
:100C6000BDFE10BD000C014010B500224FF4007114
:100C70000648FFF7B3FE012211020448FFF7AEFE5B
:100C8000012251020148FFF7A9FE10BD000C0140EE
:100C900070B5002406E0002500E06D1CB5F57A7FF4
:100CA000FBD3641CB4F57A7FF5D3FFF771FFAE2058
:100CB00000F0D0F8D52000F0CDF8802000F0CAF880
:100CC000A82000F0C7F83F2000F0C4F8D32000F0BF
:100CD000C1F8002000F0BEF8402000F0BBF8A120D1
:100CE00000F0B8F8C82000F0B5F8DA2000F0B2F84B
:100CF000122000F0AFF8812000F0ACF8CF2000F017
:100D0000A9F8D92000F0A6F8F12000F0A3F8DB2024
:100D100000F0A0F8302000F09DF8A42000F09AF830
:100D2000A62000F097F88D2000F094F8142000F031
:100D300091F8AF2000F08EF8FFF714FF70BD10B5EA
:100D40000246012000E050430B1EA1F10101FAD13F
:100D500010BD70B505460C4645F0B00000F07AF8BD
:100D6000102141EA141000F075F804F00F0000F0B3
:100D700071F870BD2DE9F04105460E461746721E0A
:100D8000D206110E6A1E5206100EFFF7E2FF002473
:100D900009E0A7F12001134A02EB0111085D00F000
:100DA00069F8601CC4B2082CF3DB721ED206110E67
:100DB0006A1E012303EB4202D0B2FFF7CAFF0024F0
:100DC0000BE0A7F12001074A02EB011204F1080130
:100DD000505C00F04FF8601CC4B2082CF1DBBDE899
:100DE000F0810000101A00082DE9F04780460E46F9
:100DF00017461D46002415E0281B411E0A20FFF758
:100E00009EFFB7FBF0F00A21B0FBF1F201FB1200EC
:100E100000F130093019C1B24A464046FFF7AAFF37
:100E2000601CC4B2AC42E7DBBDE8F0872DE9F041BD
:100E300007460E461546002407E02A5D3019C1B268
:100E40003846FFF797FF601CC4B2285D0028F4D134
:100E5000BDE8F08110B50446FFF7ECFE7820FFF7FF
:100E6000BFFE0020FFF7BCFE2046FFF7B9FEFFF7EC
:100E7000FBFE10BD10B50446FFF7DCFE7820FFF73F
:100E8000AFFE4020FFF7ACFE2046FFF7A9FEFFF7BC
:100E9000EBFE10BD00B589B00121082000F0CCF8B0
:100EA0000121042000F0B8F80121042000F0C4F86A
:100EB0000121022000F0B0F818208DF82300C02096
:100EC000ADF8200003208DF8220008A93E48FFF766
:100ED000ADFC18208DF823004020ADF82000032041
:100EE0008DF8220008A93948FFF7A0FC384800F027
:100EF000D7FA384800F0D4FA0020ADF81A00ADF85F
:100F000016006320ADF818002320ADF8140000206F
:100F10008DF81C0005A92E4800F08CFB0020ADF8D0
:100F20001A00ADF8160040F2CF70ADF81800472057
:100F3000ADF8140000208DF81C0005A9254800F02C
:100F400079FB01A800F067FB0020ADF810006020DD
:100F5000ADF804000020ADF80C000120ADF806004B
:100F600001A91B4800F0A2FA0821194800F0EAFA8A
:100F700001A9174800F0F0FA0821154800F03EFBDF
:100F800001A9144800F092FA0821124800F0DAFA98
:100F900001210F4800F06CFA01210D4800F074FAAD
:100FA00001210C4800F064FA01210A4800F06CFAB3
:100FB0000020074934310880091D08800549343173
:100FC000088009B000BD0000000C0140000801408D
:100FD000000800400004004010B5044621460248C5
:100FE00000F023FB10BD00000008004010B50446CF
:100FF0002146024800F01BFB10BD00000008004025
:1010000010B504462146024800F00FFB10BD000059
:10101000000400407047000029B1064AD26902432B
:10102000044BDA6104E0034AD2698243014BDA617E
:10103000704700000010024029B1064A926902433D
:10104000044B9A6104E0034A92698243014B9A611E
:10105000704700000010024030B50021002200243B
:1010600000232D4D6D6805F00C0121B1042905D038
:10107000082923D105E0294D056022E0274D0560B0
:101080001FE0254D6D6805F47012234D6D6805F461
:101090008034022505EB92421CB9214D5543056071
:1010A0000BE01D4D6D6805F400351DB11C4D554319
:1010B000056002E0194D5543056002E0174D0560DB
:1010C00000BF00BF144D6D6805F0F0010909154D12
:1010D0006B5C0568DD4045600F4D6D6805F4E061AF
:1010E000090A104D6B5C4568DD4085600A4D6D68EE
:1010F00005F46051C90A0B4D6B5C4568DD40C56065
:10110000054D6D6805F44041890B074D6B5CC56862
:10111000B5FBF3F5056130BD0010024000127A0006
:1011200000093D0000000020100000202DE9F05FC4
:101130004FF0000AD3464FF40060224908601420A3
:10114000FFF75DFB4FF000601E4908600AE00AF1FE
:10115000010A0120FFF753FB42F21070824501D3D0
:10116000BDE8F09F174808380068C0F380200028C9
:10117000EDD04FF0000A09E00AF1010A0120FFF763
:101180003EFB42F21070824500D3E9E70D48083873
:10119000006800F480600028EED15046FFF76BF93C
:1011A0008046094A094BFFF785F8064600224FF0B2
:1011B0008043FFF7F1F80446FFF77EF91FFA80FB42
:1011C0005846CDE7100C0140B81E85EB51B8BE3F24
:1011D0007047000000B587B001210420FFF72CFF05
:1011E00001218803FFF728FF18208DF81B004FF41A
:1011F0000070ADF8180003208DF81A0006A92148E8
:10120000FFF714FB48208DF81B004FF48060ADF809
:10121000180003208DF81A0006A91A48FFF706FBEC
:101220004FF4165002900020ADF814000C20ADF8D9
:1012300012000020ADF81000ADF80E00ADF80C0063
:1012400002A9114800F004FB012240F225510E488A
:1012500000F0D9FA4FF4A060FFF77AFC25208DF852
:10126000040001208DF807008DF805008DF80600B8
:1012700001A8FFF735FC0121034800F08EFA07B002
:1012800000BD0000000801400038014010B5FFF724
:1012900001FE10BD2DE9F04104460A492046FEF743
:1012A000CBFF80460849FEF795FF07460749FEF742
:1012B00039FF0646FFF7ECF885B22846FFF7A0FE97
:1012C000BDE8F081000087430000FA440000FA43C3
:1012D00010B500F001F810BD0CB500200190009091
:1012E0003348006840F480303149086000BF30481E
:1012F000006800F4003000900198401C01900098B4
:1013000018B90198B0F5A06FF1D12948006800F430
:10131000003010B10120009001E000200090009802
:10132000012843D12348006840F01000214908609B
:101330000846006820F0030008600846006840F096
:10134000020008601A484068194948600846406829
:1013500048600846406840F480604860084640683D
:1013600020F47C1048600846406840F4E81048606B
:101370000846006840F08070086000BF0C480068B4
:1013800000F000700028F9D00948406820F0030000
:10139000074948600846406840F00200486000BFC6
:1013A0000348406800F00C000828F9D10CBD00008B
:1013B00000100240002002407047000010B51348A2
:1013C000006840F001001149086008464068104973
:1013D00008400E494860084600680E4908400B491D
:1013E00008600846006820F48020086008464068CD
:1013F00020F4FE0048604FF41F008860FFF768FF8C
:101400004FF000600449086010BD00000010024069
:101410000000FFF8FFFFF6FE08ED00E008B501212F
:101420000820FFF709FE3820ADF8000028208DF8CD
:10143000030003208DF8020069460B48FFF7F6F918
:1014400001210420FFF7F8FD28208DF803004FF458
:101450000040ADF8000003208DF802006946034803
:10146000FFF7E4F908BD0000000C0140000801404E
:1014700021B1028842F08002028004E002884FF627
:101480007F731A400280704721B1028842F0010246
:10149000028004E002884FF6FE731A400280704713
:1014A00001894FF6F87211400181704770B5002430
:1014B00000220023058C4FF6FE7635400584028C11
:1014C0008388048B4FF68F752C40B51E2C400D88F9
:1014D0002C43751E2A400D892A434D882A43144DFA
:1014E000A8420BD0134DA84208D0134DA84205D0F6
:1014F000124DA84202D0124DA84213D14FF6F775F3
:101500002A404D892A434FF6FB752A408D882A438D
:101510004FF6FF652B404FF6FF552B408D892B432F
:10152000CD892B4383800483CD888586028470BD5A
:10153000002C0140003401400040014000440140C3
:10154000004801400A460021018B4FF6F77319400D
:10155000114301837047000070B50024002200236E
:10156000058C4FF6EF7635400584028C8388048B1A
:1015700048F6FF752C404FF6FF452C400D884FF67E
:10158000FF7606EA05252C434FF6DF752A400D89C4
:1015900006EA05152A434D8806EA05152A43154D26
:1015A000A84202D0144DA8421DD14FF67F752A40A3
:1015B0004D894FF6FF7606EA05152A434FF6BF75AB
:1015C0002A408D8806EA05152A434FF6FF352B4041
:1015D0004FF2FF752B408D8906EA85052B43CD8997
:1015E00006EA85052B4383800483CD880587028422
:1015F00070BD0000002C0140003401400A4600216B
:10160000018B4FF2FF7319404FF6FF7303EA022379
:101610001943018370470021018041808180C1808E
:10162000018141818181C181704781867047018735
:1016300070470000002202881D4B98420ED01D4BBF
:1016400098420BD0B0F1804F08D01B4B984205D088
:101650001A4B984202D01A4B984204D14FF68F731E
:101660001A404B881A43174B984207D0164B9842A2
:1016700004D04FF6FF431A40CB881A4302808B8870
:1016800083850B8803850A4B98420BD0094B9842FF
:1016900008D00E4B984205D00D4B984202D00D4B0E
:1016A000984201D10B7A03860123838270470000A0
:1016B000002C0140003401400004004000080040BC
:1016C000000C0040001000400014004000400140A9
:1016D000004401400048014010B540F22551224825
:1016E00000F067F801283DD11F4800F01DF9C4B291
:1016F0001E48007858B9402C2ED11D48007858BBA0
:1017000001201A49087000201A49087024E017487F
:10171000007801280FD10D2C09D0174815490978F8
:10172000445414480078401C1249087014E0022008
:101730000E49087010E00D48007802280CD10A2CE0
:101740000AD10020094908700120094908700020C9
:101750000949084A1278885440F22551024800F09D
:101760000DF800BF10BD000000380140150000203A
:1017700014000020160000202800002010B50022D0
:10178000002340F66A14A14200D100BF0A120124CE
:101790009440A3B2DC43048010BD21B1828942F49D
:1017A0000052828104E082894DF6FF731A408281E3
:1017B000704770B50246002400230025002040F643
:1017C0006A16B14200D100BFC1F3421501F01F03F8
:1017D000012606FA03F3012D02D19689334006E073
:1017E000022D02D1168A334001E0968A33400C1252
:1017F000012606FA04F41688344013B10CB1012016
:1018000000E0002070BDF0B503460024002600254E
:10181000002040F66A17B94200D100BF1846C1F354
:10182000421401F01F06012707FA06F5012C01D129
:101830000C3004E0022C01D1103000E014301AB159
:1018400007682F43076002E00768AF430760F0BDF9
:101850002DE9F04786B005460E460024A24600BF9B
:10186000A1460027B08900B100BF2F462C8A4CF654
:10187000FF700440F08804432C82AC894EF6F310CC
:101880000440B08831890843718908430443AC811E
:10189000AC8A4FF6FF400440B0890443AC8201A8F3
:1018A000FFF7DAFB1F48874202D1DDF810A001E004
:1018B000DDF80CA0A88900F4004040B10AEBCA0092
:1018C00000EB0A1031684900B0FBF1F807E00AEBC1
:1018D000CA0000EB0A1031688900B0FBF1F86420FF
:1018E000B8FBF0F004012009642101FB1089A889EC
:1018F00000F4004040B1322000EBC900B0FBF1F031
:1019000000F00700044308E0322000EB09106421D6
:10191000B0FBF1F000F00F0004432C8106B0BDE8ED
:10192000F08700000038014001468888C0F30800B5
:10193000704700BFFEE702E008C8121F08C1002A76
:10194000FAD170477047002001E001C1121F002A40
:10195000FBD1704708B501210820FFF76DFB03207C
:101960008DF8020010208DF80300C001ADF80000D2
:1019700069460B48FEF75AFF4FF400610848FFF72D
:1019800029F801210820FFF757FB04208DF80300F8
:101990000002ADF8000069460148FEF747FF08BDA8
:1019A000000C0140FFF776FAFFF738F8FFF770F9FF
:1019B000FFF710FC0020FFF76DFCFFF767FCFFF757
:1019C0002DFDFFF7C7FF01210920FFF735FB01219E
:1019D0000948FEF7B7FF09A201210846FFF726FADA
:1019E00008A201210220FFF721FAFEF7FFFF01E024
:1019F000FEF744FEFCE700000002300074656D70E5
:101A00003A00000068756D69646974793A000000F5
:101A100000000000000000000000000000000000C6
:101A2000000000F80000000000000033300000005B
:101A300000100C06100C0600000000000000000062
:101A400040C07840C0784000043F04043F040400D4
:101A5000007088FC08300000001820FF211E0000E4
:101A6000F008F000E018000000211C031E211E00F9
:101A700000F00888700000001E212324192721107F
:101A800010160E0000000000000000000000000022
:101A9000000000E0180402000000000718204000C9
:101AA00000020418E00000000040201807000000B9
:101AB000404080F0804040000202010F010202001D
:101AC000000000F0000000000101011F0101010001
:101AD000000000000000000080B070000000000066
:101AE00000000000000000000001010101010101EF
:101AF0000000000000000000003030000000000086
:101B0000000000008060180400601806010000005A
:101B100000E010080810E000000F102020100F0057
:101B2000001010F8000000000020203F20200000DE
:101B30000070080808887000003028242221300036
:101B400000300888884830000018202020110E003E
:101B50000000C02010F8000000070424243F2400E7
:101B600000F80888880808000019212020110E00BC
:101B700000E0108888180000000F112020110E00CE
:101B800000380808C83808000000003F00000000C6
:101B90000070880808887000001C222121221C0087
:101BA00000E010080810E0000000312222110F00B0
:101BB000000000C0C0000000000000303000000045
:101BC00000000080000000000000806000000000B5
:101BD00000008040201008000001020408102000CE
:101BE0004040404040404000040404040404040019
:101BF00000081020408000000020100804020100AE
:101C0000007048080808F0000000003036010000AD
:101C1000C030C828E810E0000718272423140B0060
:101C20000000C038E0000000203C230202273820DA
:101C300008F8888888700000203F202020110E00BE
:101C4000C0300808080838000718202020100800B5
:101C500008F808080810E000203F202020100F009E
:101C600008F88888E8081000203F2020232018006A
:101C700008F88888E8081000203F200003000000D2
:101C8000C03008080838000007182020221E020073
:101C900008F808000008F808203F210101213F2032
:101CA000000808F8080800000020203F202000005D
:101CB00000000808F8080800C08080807F0000004D
:101CC00008F888C028180800203F20012638200086
:101CD00008F8080000000000203F202020203000ED
:101CE00008F8F800F8F80800203F003F003F200007
:101CF00008F830C00008F808203F200007183F000F
:101D0000E01008080810E0000F10202020100F003D
:101D100008F808080808F000203F21010101000030
:101D2000E01008080810E0000F18242438504F0075
:101D300008F8888888887000203F2000030C302035
:101D400000708808080838000038202121221C0073
:101D5000180808F8080818000000203F20000000BC
:101D600008F808000008F808001F202020201F00A5
:101D70000878880000C83808000007380E01000005
:101D8000F80800F80008F800033C0700073C0300CF
:101D9000081868808068180820302C03032C302035
:101DA0000838C800C83808000000203F20000000A4
:101DB00010080808C83808002038262120201800FC
:101DC000000000FE020202000000007F40404000D0
:101DD000000C30C000000000000000010638C00008
:101DE00000020202FE000000004040407F000000B0
:101DF00000000402020204000000000000000000D5
:101E000000000000000000008080808080808080D2
:101E100000020204000000000000000000000000BA
:101E200000008080808000000019242222223F20B0
:101E300008F8008080000000003F112020110E00F3
:101E40000000008080800000000E11202020110082
:101E5000000000808088F800000E112020103F2034
:101E60000000808080800000001F222222221300B8
:101E7000008080F0888888180020203F2020000003
:101E80000000808080808000006B949494936000B8
:101E900008F8008080800000203F210000203F20C3
:101EA00000809898000000000020203F20200000C3
:101EB000000000809898000000C08080807F0000B3
:101EC00008F8000080808000203F24022D30200090
:101ED000000808F8000000000020203F202000003B
:101EE0008080808080808000203F20003F20003F55
:101EF0008080008080800000203F210000203F2063
:101F00000000808080800000001F202020201F0013
:101F1000808000808000000080FFA12020110E0042
:101F20000000008080808000000E112020A0FF8033
:101F3000808080008080800020203F2120000100E0
:101F40000000808080808000003324242424190035
:101F5000008080E0808000000000001F2020000042
:101F60008080000000808000001F202020103F2083
:101F7000808080000080808000010E300806010013
:101F800080800080008080800F300C030C300F00B8
:101F900000808000808080000020312E0E312000E3
:101FA000808080000080808080818E701806010013
:101FB00000808080808080000021302C2221300031
:101FC00000000000807C020200000000003F404052
:101FD00000000000FF00000000000000FF00000003
:101FE0000002027C800000000040403F0000000032
:101FF00000060101020204040000000000000000CD
:1020000020200008000000202800000036190008E9
:102010004820000828000020680400004619000835
:10202000000000000102030401020304060708097E
:10203000020406080000000000000000000000008C
:08204000000000000000000098
:04000005080000ED02
:00000001FF
